{
  "_format": "hh-sol-artifact-1",
  "contractName": "MyNFT",
  "sourceName": "contracts/myNFT.sol",
  "abi": [
    {
      "inputs": [],
      "stateMutability": "nonpayable",
      "type": "constructor"
    },
    {
      "anonymous": false,
      "inputs": [
        {
          "indexed": true,
          "internalType": "address",
          "name": "owner",
          "type": "address"
        },
        {
          "indexed": true,
          "internalType": "address",
          "name": "approved",
          "type": "address"
        },
        {
          "indexed": true,
          "internalType": "uint256",
          "name": "tokenId",
          "type": "uint256"
        }
      ],
      "name": "Approval",
      "type": "event"
    },
    {
      "anonymous": false,
      "inputs": [
        {
          "indexed": true,
          "internalType": "address",
          "name": "owner",
          "type": "address"
        },
        {
          "indexed": true,
          "internalType": "address",
          "name": "operator",
          "type": "address"
        },
        {
          "indexed": false,
          "internalType": "bool",
          "name": "approved",
          "type": "bool"
        }
      ],
      "name": "ApprovalForAll",
      "type": "event"
    },
    {
      "anonymous": false,
      "inputs": [
        {
          "indexed": false,
          "internalType": "address",
          "name": "sender",
          "type": "address"
        },
        {
          "indexed": false,
          "internalType": "uint256",
          "name": "tokenId",
          "type": "uint256"
        }
      ],
      "name": "NewAkayNFTMinted",
      "type": "event"
    },
    {
      "anonymous": false,
      "inputs": [
        {
          "indexed": true,
          "internalType": "address",
          "name": "from",
          "type": "address"
        },
        {
          "indexed": true,
          "internalType": "address",
          "name": "to",
          "type": "address"
        },
        {
          "indexed": true,
          "internalType": "uint256",
          "name": "tokenId",
          "type": "uint256"
        }
      ],
      "name": "Transfer",
      "type": "event"
    },
    {
      "inputs": [
        {
          "internalType": "address",
          "name": "to",
          "type": "address"
        },
        {
          "internalType": "uint256",
          "name": "tokenId",
          "type": "uint256"
        }
      ],
      "name": "approve",
      "outputs": [],
      "stateMutability": "nonpayable",
      "type": "function"
    },
    {
      "inputs": [
        {
          "internalType": "address",
          "name": "owner",
          "type": "address"
        }
      ],
      "name": "balanceOf",
      "outputs": [
        {
          "internalType": "uint256",
          "name": "",
          "type": "uint256"
        }
      ],
      "stateMutability": "view",
      "type": "function"
    },
    {
      "inputs": [
        {
          "internalType": "uint256",
          "name": "tokenId",
          "type": "uint256"
        }
      ],
      "name": "getApproved",
      "outputs": [
        {
          "internalType": "address",
          "name": "",
          "type": "address"
        }
      ],
      "stateMutability": "view",
      "type": "function"
    },
    {
      "inputs": [
        {
          "internalType": "uint256",
          "name": "tokenId",
          "type": "uint256"
        }
      ],
      "name": "getFirstRandomWord",
      "outputs": [
        {
          "internalType": "string",
          "name": "",
          "type": "string"
        }
      ],
      "stateMutability": "view",
      "type": "function"
    },
    {
      "inputs": [
        {
          "internalType": "uint256",
          "name": "tokenId",
          "type": "uint256"
        }
      ],
      "name": "getSecondRandomWord",
      "outputs": [
        {
          "internalType": "string",
          "name": "",
          "type": "string"
        }
      ],
      "stateMutability": "view",
      "type": "function"
    },
    {
      "inputs": [
        {
          "internalType": "uint256",
          "name": "tokenId",
          "type": "uint256"
        }
      ],
      "name": "getThirdRandomWord",
      "outputs": [
        {
          "internalType": "string",
          "name": "",
          "type": "string"
        }
      ],
      "stateMutability": "view",
      "type": "function"
    },
    {
      "inputs": [
        {
          "internalType": "address",
          "name": "owner",
          "type": "address"
        },
        {
          "internalType": "address",
          "name": "operator",
          "type": "address"
        }
      ],
      "name": "isApprovedForAll",
      "outputs": [
        {
          "internalType": "bool",
          "name": "",
          "type": "bool"
        }
      ],
      "stateMutability": "view",
      "type": "function"
    },
    {
      "inputs": [],
      "name": "mintAkayNFT",
      "outputs": [],
      "stateMutability": "nonpayable",
      "type": "function"
    },
    {
      "inputs": [],
      "name": "name",
      "outputs": [
        {
          "internalType": "string",
          "name": "",
          "type": "string"
        }
      ],
      "stateMutability": "view",
      "type": "function"
    },
    {
      "inputs": [
        {
          "internalType": "uint256",
          "name": "tokenId",
          "type": "uint256"
        }
      ],
      "name": "ownerOf",
      "outputs": [
        {
          "internalType": "address",
          "name": "",
          "type": "address"
        }
      ],
      "stateMutability": "view",
      "type": "function"
    },
    {
      "inputs": [
        {
          "internalType": "string",
          "name": "input",
          "type": "string"
        }
      ],
      "name": "random",
      "outputs": [
        {
          "internalType": "uint256",
          "name": "",
          "type": "uint256"
        }
      ],
      "stateMutability": "pure",
      "type": "function"
    },
    {
      "inputs": [
        {
          "internalType": "address",
          "name": "from",
          "type": "address"
        },
        {
          "internalType": "address",
          "name": "to",
          "type": "address"
        },
        {
          "internalType": "uint256",
          "name": "tokenId",
          "type": "uint256"
        }
      ],
      "name": "safeTransferFrom",
      "outputs": [],
      "stateMutability": "nonpayable",
      "type": "function"
    },
    {
      "inputs": [
        {
          "internalType": "address",
          "name": "from",
          "type": "address"
        },
        {
          "internalType": "address",
          "name": "to",
          "type": "address"
        },
        {
          "internalType": "uint256",
          "name": "tokenId",
          "type": "uint256"
        },
        {
          "internalType": "bytes",
          "name": "_data",
          "type": "bytes"
        }
      ],
      "name": "safeTransferFrom",
      "outputs": [],
      "stateMutability": "nonpayable",
      "type": "function"
    },
    {
      "inputs": [
        {
          "internalType": "address",
          "name": "operator",
          "type": "address"
        },
        {
          "internalType": "bool",
          "name": "approved",
          "type": "bool"
        }
      ],
      "name": "setApprovalForAll",
      "outputs": [],
      "stateMutability": "nonpayable",
      "type": "function"
    },
    {
      "inputs": [
        {
          "internalType": "bytes4",
          "name": "interfaceId",
          "type": "bytes4"
        }
      ],
      "name": "supportsInterface",
      "outputs": [
        {
          "internalType": "bool",
          "name": "",
          "type": "bool"
        }
      ],
      "stateMutability": "view",
      "type": "function"
    },
    {
      "inputs": [],
      "name": "symbol",
      "outputs": [
        {
          "internalType": "string",
          "name": "",
          "type": "string"
        }
      ],
      "stateMutability": "view",
      "type": "function"
    },
    {
      "inputs": [
        {
          "internalType": "uint256",
          "name": "tokenId",
          "type": "uint256"
        }
      ],
      "name": "tokenURI",
      "outputs": [
        {
          "internalType": "string",
          "name": "",
          "type": "string"
        }
      ],
      "stateMutability": "view",
      "type": "function"
    },
    {
      "inputs": [
        {
          "internalType": "address",
          "name": "from",
          "type": "address"
        },
        {
          "internalType": "address",
          "name": "to",
          "type": "address"
        },
        {
          "internalType": "uint256",
          "name": "tokenId",
          "type": "uint256"
        }
      ],
      "name": "transferFrom",
      "outputs": [],
      "stateMutability": "nonpayable",
      "type": "function"
    }
  ],
  "bytecode": "0x608060405260405180610160016040528061012f815260200162004a3c61012f9139600890805190602001906200003892919062000cba565b50604051806101e001604052806040518060400160405280600781526020017f4361707461696e0000000000000000000000000000000000000000000000000081525081526020016040518060400160405280600781526020017f507269766174650000000000000000000000000000000000000000000000000081525081526020016040518060400160405280600a81526020017f4c69657574656e616e740000000000000000000000000000000000000000000081525081526020016040518060400160405280600581526020017f436164657400000000000000000000000000000000000000000000000000000081525081526020016040518060400160405280600881526020017f436f72706f72616c00000000000000000000000000000000000000000000000081525081526020016040518060400160405280600581526020017f4d616a6f7200000000000000000000000000000000000000000000000000000081525081526020016040518060400160405280600781526020017f47656e6572616c0000000000000000000000000000000000000000000000000081525081526020016040518060400160405280600781526020017f436f6d726164650000000000000000000000000000000000000000000000000081525081526020016040518060400160405280600581526020017f526562656c00000000000000000000000000000000000000000000000000000081525081526020016040518060400160405280600881526020017f4d61727368616c6c00000000000000000000000000000000000000000000000081525081526020016040518060400160405280600781526020017f4f6666696365720000000000000000000000000000000000000000000000000081525081526020016040518060400160405280600981526020017f427269676164696572000000000000000000000000000000000000000000000081525081526020016040518060400160405280600981526020017f436f6d6d616e646572000000000000000000000000000000000000000000000081525081526020016040518060400160405280600781526020017f41646d6972616c0000000000000000000000000000000000000000000000000081525081526020016040518060400160405280600781526020017f436f6c6f6e656c00000000000000000000000000000000000000000000000000815250815250600990600f620003ca92919062000d4b565b50604051806101e001604052806040518060400160405280600481526020017f416b61790000000000000000000000000000000000000000000000000000000081525081526020016040518060400160405280600581526020017f4f6269776500000000000000000000000000000000000000000000000000000081525081526020016040518060400160405280600781526020017f4672616e6369730000000000000000000000000000000000000000000000000081525081526020016040518060400160405280600481526020017f5279616e0000000000000000000000000000000000000000000000000000000081525081526020016040518060400160405280600581526020017f4a696e647500000000000000000000000000000000000000000000000000000081525081526020016040518060400160405280600681526020017f566963746f72000000000000000000000000000000000000000000000000000081525081526020016040518060400160405280600681526020017f4e6e616d6469000000000000000000000000000000000000000000000000000081525081526020016040518060400160405280600581526020017f4b616d736900000000000000000000000000000000000000000000000000000081525081526020016040518060400160405280600581526020017f436872697300000000000000000000000000000000000000000000000000000081525081526020016040518060400160405280600581526020017f446176696400000000000000000000000000000000000000000000000000000081525081526020016040518060400160405280600681526020017f417468656e61000000000000000000000000000000000000000000000000000081525081526020016040518060400160405280600581526020017f526f61636800000000000000000000000000000000000000000000000000000081525081526020016040518060400160405280600481526020017f536f61700000000000000000000000000000000000000000000000000000000081525081526020016040518060400160405280600b81526020017f4b616c6173686e696b6f7600000000000000000000000000000000000000000081525081526020016040518060400160405280600581526020017f47686f7374000000000000000000000000000000000000000000000000000000815250815250600a90600f6200075c92919062000d4b565b50604051806101e001604052806040518060400160405280600681526020017f4561676c6573000000000000000000000000000000000000000000000000000081525081526020016040518060400160405280600481526020017f4c696f6e0000000000000000000000000000000000000000000000000000000081525081526020016040518060400160405280600481526020017f576f6c660000000000000000000000000000000000000000000000000000000081525081526020016040518060400160405280600681526020017f436f75676172000000000000000000000000000000000000000000000000000081525081526020016040518060400160405280600581526020017f546967657200000000000000000000000000000000000000000000000000000081525081526020016040518060400160405280600481526020017f4861776b0000000000000000000000000000000000000000000000000000000081525081526020016040518060400160405280600581526020017f507269636500000000000000000000000000000000000000000000000000000081525081526020016040518060400160405280600581526020017f526f76657200000000000000000000000000000000000000000000000000000081525081526020016040518060400160405280600681526020017f46616c636f6e000000000000000000000000000000000000000000000000000081525081526020016040518060400160405280600581526020017f536861726b00000000000000000000000000000000000000000000000000000081525081526020016040518060400160405280600581526020017f5768616c6500000000000000000000000000000000000000000000000000000081525081526020016040518060400160405280600481526020017f426561720000000000000000000000000000000000000000000000000000000081525081526020016040518060400160405280600681526020017f48756e746572000000000000000000000000000000000000000000000000000081525081526020016040518060400160405280600381526020017f446f67000000000000000000000000000000000000000000000000000000000081525081526020016040518060400160405280600381526020017f466f780000000000000000000000000000000000000000000000000000000000815250815250600b90600f62000aee92919062000d4b565b5034801562000afc57600080fd5b506040518060400160405280600781526020017f416b61794e4654000000000000000000000000000000000000000000000000008152506040518060400160405280600481526020017f414b415900000000000000000000000000000000000000000000000000000000815250816000908051906020019062000b8192919062000cba565b50806001908051906020019062000b9a92919062000cba565b50505062000be86040518060400160405280600c81526020017f6c6574732067657420697421000000000000000000000000000000000000000081525062000bee60201b6200114f1760201c565b62000f6c565b62000c8e8160405160240162000c05919062000e80565b6040516020818303038152906040527f41304fac000000000000000000000000000000000000000000000000000000007bffffffffffffffffffffffffffffffffffffffffffffffffffffffff19166020820180517bffffffffffffffffffffffffffffffffffffffffffffffffffffffff838183161783525050505062000c9160201b60201c565b50565b60008151905060006a636f6e736f6c652e6c6f679050602083016000808483855afa5050505050565b82805462000cc89062000ef6565b90600052602060002090601f01602090048101928262000cec576000855562000d38565b82601f1062000d0757805160ff191683800117855562000d38565b8280016001018555821562000d38579182015b8281111562000d3757825182559160200191906001019062000d1a565b5b50905062000d47919062000db2565b5090565b82805482825590600052602060002090810192821562000d9f579160200282015b8281111562000d9e57825182908051906020019062000d8d92919062000cba565b509160200191906001019062000d6c565b5b50905062000dae919062000dd1565b5090565b5b8082111562000dcd57600081600090555060010162000db3565b5090565b5b8082111562000df5576000818162000deb919062000df9565b5060010162000dd2565b5090565b50805462000e079062000ef6565b6000825580601f1062000e1b575062000e3c565b601f01602090049060005260206000209081019062000e3b919062000db2565b5b50565b600062000e4c8262000ea4565b62000e58818562000eaf565b935062000e6a81856020860162000ec0565b62000e758162000f5b565b840191505092915050565b6000602082019050818103600083015262000e9c818462000e3f565b905092915050565b600081519050919050565b600082825260208201905092915050565b60005b8381101562000ee057808201518184015260208101905062000ec3565b8381111562000ef0576000848401525b50505050565b6000600282049050600182168062000f0f57607f821691505b6020821081141562000f265762000f2562000f2c565b5b50919050565b7f4e487b7100000000000000000000000000000000000000000000000000000000600052602260045260246000fd5b6000601f19601f8301169050919050565b613ac08062000f7c6000396000f3fe608060405234801561001057600080fd5b50600436106101165760003560e01c80636352211e116100a2578063b88d4fde11610071578063b88d4fde14610317578063c87b56dd14610333578063d687cf5514610363578063e691cba714610393578063e985e9c51461039d57610116565b80636352211e1461027d57806370a08231146102ad57806395d89b41146102dd578063a22cb465146102fb57610116565b80631f7cfb77116100e95780631f7cfb77146101b557806322b8d044146101e557806323b872dd1461021557806342842e0e146102315780635a07f36b1461024d57610116565b806301ffc9a71461011b57806306fdde031461014b578063081812fc14610169578063095ea7b314610199575b600080fd5b610135600480360381019061013091906125b0565b6103cd565b6040516101429190612cd0565b60405180910390f35b6101536104af565b6040516101609190612ceb565b60405180910390f35b610183600480360381019061017e9190612643565b610541565b6040516101909190612c40565b60405180910390f35b6101b360048036038101906101ae9190612574565b6105c6565b005b6101cf60048036038101906101ca9190612643565b6106de565b6040516101dc9190612ceb565b60405180910390f35b6101ff60048036038101906101fa9190612602565b6107fc565b60405161020c9190612f4b565b60405180910390f35b61022f600480360381019061022a919061246e565b61082f565b005b61024b6004803603810190610246919061246e565b61088f565b005b61026760048036038101906102629190612643565b6108af565b6040516102749190612ceb565b60405180910390f35b61029760048036038101906102929190612643565b6109cd565b6040516102a49190612c40565b60405180910390f35b6102c760048036038101906102c29190612409565b610a7f565b6040516102d49190612f4b565b60405180910390f35b6102e5610b37565b6040516102f29190612ceb565b60405180910390f35b61031560048036038101906103109190612538565b610bc9565b005b610331600480360381019061032c91906124bd565b610bdf565b005b61034d60048036038101906103489190612643565b610c41565b60405161035a9190612ceb565b60405180910390f35b61037d60048036038101906103789190612643565b610d93565b60405161038a9190612ceb565b60405180910390f35b61039b610eb1565b005b6103b760048036038101906103b29190612432565b6110bb565b6040516103c49190612cd0565b60405180910390f35b60007f80ac58cd000000000000000000000000000000000000000000000000000000007bffffffffffffffffffffffffffffffffffffffffffffffffffffffff1916827bffffffffffffffffffffffffffffffffffffffffffffffffffffffff1916148061049857507f5b5e139f000000000000000000000000000000000000000000000000000000007bffffffffffffffffffffffffffffffffffffffffffffffffffffffff1916827bffffffffffffffffffffffffffffffffffffffffffffffffffffffff1916145b806104a857506104a7826111e8565b5b9050919050565b6060600080546104be90613210565b80601f01602080910402602001604051908101604052809291908181526020018280546104ea90613210565b80156105375780601f1061050c57610100808354040283529160200191610537565b820191906000526020600020905b81548152906001019060200180831161051a57829003601f168201915b5050505050905090565b600061054c82611252565b61058b576040517f08c379a000000000000000000000000000000000000000000000000000000000815260040161058290612ecb565b60405180910390fd5b6004600083815260200190815260200160002060009054906101000a900473ffffffffffffffffffffffffffffffffffffffff169050919050565b60006105d1826109cd565b90508073ffffffffffffffffffffffffffffffffffffffff168373ffffffffffffffffffffffffffffffffffffffff161415610642576040517f08c379a000000000000000000000000000000000000000000000000000000000815260040161063990612f0b565b60405180910390fd5b8073ffffffffffffffffffffffffffffffffffffffff166106616112be565b73ffffffffffffffffffffffffffffffffffffffff161480610690575061068f8161068a6112be565b6110bb565b5b6106cf576040517f08c379a00000000000000000000000000000000000000000000000000000000081526004016106c690612e0b565b60405180910390fd5b6106d983836112c6565b505050565b606060006107126106ee8461137f565b6040516020016106fe9190612bfc565b6040516020818303038152906040526107fc565b9050600b805490508161072591906132bc565b9050600b8181548110610761577f4e487b7100000000000000000000000000000000000000000000000000000000600052603260045260246000fd5b90600052602060002001805461077690613210565b80601f01602080910402602001604051908101604052809291908181526020018280546107a290613210565b80156107ef5780601f106107c4576101008083540402835291602001916107ef565b820191906000526020600020905b8154815290600101906020018083116107d257829003601f168201915b5050505050915050919050565b60008160405160200161080f9190612ae0565b6040516020818303038152906040528051906020012060001c9050919050565b61084061083a6112be565b8261152c565b61087f576040517f08c379a000000000000000000000000000000000000000000000000000000000815260040161087690612f2b565b60405180910390fd5b61088a83838361160a565b505050565b6108aa83838360405180602001604052806000815250610bdf565b505050565b606060006108e36108bf8461137f565b6040516020016108cf9190612bfc565b6040516020818303038152906040526107fc565b9050600980549050816108f691906132bc565b905060098181548110610932577f4e487b7100000000000000000000000000000000000000000000000000000000600052603260045260246000fd5b90600052602060002001805461094790613210565b80601f016020809104026020016040519081016040528092919081815260200182805461097390613210565b80156109c05780601f10610995576101008083540402835291602001916109c0565b820191906000526020600020905b8154815290600101906020018083116109a357829003601f168201915b5050505050915050919050565b6000806002600084815260200190815260200160002060009054906101000a900473ffffffffffffffffffffffffffffffffffffffff169050600073ffffffffffffffffffffffffffffffffffffffff168173ffffffffffffffffffffffffffffffffffffffff161415610a76576040517f08c379a0000000000000000000000000000000000000000000000000000000008152600401610a6d90612e4b565b60405180910390fd5b80915050919050565b60008073ffffffffffffffffffffffffffffffffffffffff168273ffffffffffffffffffffffffffffffffffffffff161415610af0576040517f08c379a0000000000000000000000000000000000000000000000000000000008152600401610ae790612e2b565b60405180910390fd5b600360008373ffffffffffffffffffffffffffffffffffffffff1673ffffffffffffffffffffffffffffffffffffffff168152602001908152602001600020549050919050565b606060018054610b4690613210565b80601f0160208091040260200160405190810160405280929190818152602001828054610b7290613210565b8015610bbf5780601f10610b9457610100808354040283529160200191610bbf565b820191906000526020600020905b815481529060010190602001808311610ba257829003601f168201915b5050505050905090565b610bdb610bd46112be565b8383611871565b5050565b610bf0610bea6112be565b8361152c565b610c2f576040517f08c379a0000000000000000000000000000000000000000000000000000000008152600401610c2690612f2b565b60405180910390fd5b610c3b848484846119de565b50505050565b6060610c4c82611252565b610c8b576040517f08c379a0000000000000000000000000000000000000000000000000000000008152600401610c8290612eab565b60405180910390fd5b6000600660008481526020019081526020016000208054610cab90613210565b80601f0160208091040260200160405190810160405280929190818152602001828054610cd790613210565b8015610d245780601f10610cf957610100808354040283529160200191610d24565b820191906000526020600020905b815481529060010190602001808311610d0757829003601f168201915b505050505090506000610d35611a3a565b9050600081511415610d4b578192505050610d8e565b600082511115610d80578082604051602001610d68929190612af7565b60405160208183030381529060405292505050610d8e565b610d8984611a51565b925050505b919050565b60606000610dc7610da38461137f565b604051602001610db39190612bfc565b6040516020818303038152906040526107fc565b9050600a8054905081610dda91906132bc565b9050600a8181548110610e16577f4e487b7100000000000000000000000000000000000000000000000000000000600052603260045260246000fd5b906000526020600020018054610e2b90613210565b80601f0160208091040260200160405190810160405280929190818152602001828054610e5790613210565b8015610ea45780601f10610e7957610100808354040283529160200191610ea4565b820191906000526020600020905b815481529060010190602001808311610e8757829003601f168201915b5050505050915050919050565b610ebb6007611af8565b6000610ec76007611b0e565b90506000610ed4826108af565b90506000610ee183610d93565b90506000610eee846106de565b90506000838383604051602001610f0793929190612b1b565b604051602081830303815290604052905060006008858585604051602001610f329493929190612b4c565b60405160208183030381529060405290506000610f7783610f5284611b1c565b604051602001610f63929190612bb7565b604051602081830303815290604052611b1c565b9050600081604051602001610f8c9190612c1e565b6040516020818303038152906040529050610fdb6040518060400160405280601581526020017f0a2d2d2d2d2d2d2d2d2d2d2d2d2d2d2d2d2d2d2d2d000000000000000000000081525061114f565b61100381604051602001610fef9190612b95565b60405160208183030381529060405261114f565b6110416040518060400160405280601581526020017f2d2d2d2d2d2d2d2d2d2d2d2d2d2d2d2d2d2d2d2d0a000000000000000000000081525061114f565b61104b3389611cda565b6110558882611cf8565b611078604051806060016040528060258152602001613a26602591398933611d6c565b7f229b02cf62a75b6ef3fb43553ec1f0aa5b7fc733edcb153c3430e84da63256a433896040516110a9929190612ca7565b60405180910390a15050505050505050565b6000600560008473ffffffffffffffffffffffffffffffffffffffff1673ffffffffffffffffffffffffffffffffffffffff16815260200190815260200160002060008373ffffffffffffffffffffffffffffffffffffffff1673ffffffffffffffffffffffffffffffffffffffff16815260200190815260200160002060009054906101000a900460ff16905092915050565b6111e5816040516024016111639190612ceb565b6040516020818303038152906040527f41304fac000000000000000000000000000000000000000000000000000000007bffffffffffffffffffffffffffffffffffffffffffffffffffffffff19166020820180517bffffffffffffffffffffffffffffffffffffffffffffffffffffffff8381831617835250505050611e0b565b50565b60007f01ffc9a7000000000000000000000000000000000000000000000000000000007bffffffffffffffffffffffffffffffffffffffffffffffffffffffff1916827bffffffffffffffffffffffffffffffffffffffffffffffffffffffff1916149050919050565b60008073ffffffffffffffffffffffffffffffffffffffff166002600084815260200190815260200160002060009054906101000a900473ffffffffffffffffffffffffffffffffffffffff1673ffffffffffffffffffffffffffffffffffffffff1614159050919050565b600033905090565b816004600083815260200190815260200160002060006101000a81548173ffffffffffffffffffffffffffffffffffffffff021916908373ffffffffffffffffffffffffffffffffffffffff160217905550808273ffffffffffffffffffffffffffffffffffffffff16611339836109cd565b73ffffffffffffffffffffffffffffffffffffffff167f8c5be1e5ebec7d5bd14f71427d1e84f3dd0314c0f7b2291e5b200ac8c7c3b92560405160405180910390a45050565b606060008214156113c7576040518060400160405280600181526020017f30000000000000000000000000000000000000000000000000000000000000008152509050611527565b600082905060005b600082146113f95780806113e290613273565b915050600a826113f2919061309b565b91506113cf565b60008167ffffffffffffffff81111561143b577f4e487b7100000000000000000000000000000000000000000000000000000000600052604160045260246000fd5b6040519080825280601f01601f19166020018201604052801561146d5781602001600182028036833780820191505090505b5090505b60008514611520576001826114869190613126565b9150600a8561149591906132bc565b60306114a19190613045565b60f81b8183815181106114dd577f4e487b7100000000000000000000000000000000000000000000000000000000600052603260045260246000fd5b60200101907effffffffffffffffffffffffffffffffffffffffffffffffffffffffffffff1916908160001a905350600a85611519919061309b565b9450611471565b8093505050505b919050565b600061153782611252565b611576576040517f08c379a000000000000000000000000000000000000000000000000000000000815260040161156d90612deb565b60405180910390fd5b6000611581836109cd565b90508073ffffffffffffffffffffffffffffffffffffffff168473ffffffffffffffffffffffffffffffffffffffff1614806115f057508373ffffffffffffffffffffffffffffffffffffffff166115d884610541565b73ffffffffffffffffffffffffffffffffffffffff16145b80611601575061160081856110bb565b5b91505092915050565b8273ffffffffffffffffffffffffffffffffffffffff1661162a826109cd565b73ffffffffffffffffffffffffffffffffffffffff1614611680576040517f08c379a000000000000000000000000000000000000000000000000000000000815260040161167790612d6b565b60405180910390fd5b600073ffffffffffffffffffffffffffffffffffffffff168273ffffffffffffffffffffffffffffffffffffffff1614156116f0576040517f08c379a00000000000000000000000000000000000000000000000000000000081526004016116e790612dab565b60405180910390fd5b6116fb838383611e34565b6117066000826112c6565b6001600360008573ffffffffffffffffffffffffffffffffffffffff1673ffffffffffffffffffffffffffffffffffffffff16815260200190815260200160002060008282546117569190613126565b925050819055506001600360008473ffffffffffffffffffffffffffffffffffffffff1673ffffffffffffffffffffffffffffffffffffffff16815260200190815260200160002060008282546117ad9190613045565b92505081905550816002600083815260200190815260200160002060006101000a81548173ffffffffffffffffffffffffffffffffffffffff021916908373ffffffffffffffffffffffffffffffffffffffff160217905550808273ffffffffffffffffffffffffffffffffffffffff168473ffffffffffffffffffffffffffffffffffffffff167fddf252ad1be2c89b69c2b068fc378daa952ba7f163c4a11628f55a4df523b3ef60405160405180910390a461186c838383611e39565b505050565b8173ffffffffffffffffffffffffffffffffffffffff168373ffffffffffffffffffffffffffffffffffffffff1614156118e0576040517f08c379a00000000000000000000000000000000000000000000000000000000081526004016118d790612dcb565b60405180910390fd5b80600560008573ffffffffffffffffffffffffffffffffffffffff1673ffffffffffffffffffffffffffffffffffffffff16815260200190815260200160002060008473ffffffffffffffffffffffffffffffffffffffff1673ffffffffffffffffffffffffffffffffffffffff16815260200190815260200160002060006101000a81548160ff0219169083151502179055508173ffffffffffffffffffffffffffffffffffffffff168373ffffffffffffffffffffffffffffffffffffffff167f17307eab39ab6107e8899845ad3d59bd9653f200f220920489ca2b5937696c31836040516119d19190612cd0565b60405180910390a3505050565b6119e984848461160a565b6119f584848484611e3e565b611a34576040517f08c379a0000000000000000000000000000000000000000000000000000000008152600401611a2b90612d4b565b60405180910390fd5b50505050565b606060405180602001604052806000815250905090565b6060611a5c82611252565b611a9b576040517f08c379a0000000000000000000000000000000000000000000000000000000008152600401611a9290612eeb565b60405180910390fd5b6000611aa5611a3a565b90506000815111611ac55760405180602001604052806000815250611af0565b80611acf8461137f565b604051602001611ae0929190612af7565b6040516020818303038152906040525b915050919050565b6001816000016000828254019250508190555050565b600081600001549050919050565b60606000825190506000811415611b455760405180602001604052806000815250915050611cd5565b60006003600283611b569190613045565b611b60919061309b565b6004611b6c91906130cc565b90506000602082611b7d9190613045565b67ffffffffffffffff811115611bbc577f4e487b7100000000000000000000000000000000000000000000000000000000600052604160045260246000fd5b6040519080825280601f01601f191660200182016040528015611bee5781602001600182028036833780820191505090505b5090506000604051806060016040528060408152602001613a4b604091399050600181016020830160005b86811015611c925760038101905062ffffff818a015116603f8160121c168401518060081b905060ff603f83600c1c1686015116810190508060081b905060ff603f8360061c1686015116810190508060081b905060ff603f831686015116810190508060e01b90508084526004840193505050611c19565b506003860660018114611cac5760028114611cbc57611cc7565b613d3d60f01b6002830352611cc7565b603d60f81b60018303525b508484525050819450505050505b919050565b611cf4828260405180602001604052806000815250611fd5565b5050565b611d0182611252565b611d40576040517f08c379a0000000000000000000000000000000000000000000000000000000008152600401611d3790612e6b565b60405180910390fd5b80600660008481526020019081526020016000209080519060200190611d6792919061222d565b505050565b611e06838383604051602401611d8493929190612d0d565b6040516020818303038152906040527fe3849f79000000000000000000000000000000000000000000000000000000007bffffffffffffffffffffffffffffffffffffffffffffffffffffffff19166020820180517bffffffffffffffffffffffffffffffffffffffffffffffffffffffff8381831617835250505050611e0b565b505050565b60008151905060006a636f6e736f6c652e6c6f679050602083016000808483855afa5050505050565b505050565b505050565b6000611e5f8473ffffffffffffffffffffffffffffffffffffffff16612030565b15611fc8578373ffffffffffffffffffffffffffffffffffffffff1663150b7a02611e886112be565b8786866040518563ffffffff1660e01b8152600401611eaa9493929190612c5b565b602060405180830381600087803b158015611ec457600080fd5b505af1925050508015611ef557506040513d601f19601f82011682018060405250810190611ef291906125d9565b60015b611f78573d8060008114611f25576040519150601f19603f3d011682016040523d82523d6000602084013e611f2a565b606091505b50600081511415611f70576040517f08c379a0000000000000000000000000000000000000000000000000000000008152600401611f6790612d4b565b60405180910390fd5b805181602001fd5b63150b7a0260e01b7bffffffffffffffffffffffffffffffffffffffffffffffffffffffff1916817bffffffffffffffffffffffffffffffffffffffffffffffffffffffff191614915050611fcd565b600190505b949350505050565b611fdf8383612053565b611fec6000848484611e3e565b61202b576040517f08c379a000000000000000000000000000000000000000000000000000000000815260040161202290612d4b565b60405180910390fd5b505050565b6000808273ffffffffffffffffffffffffffffffffffffffff163b119050919050565b600073ffffffffffffffffffffffffffffffffffffffff168273ffffffffffffffffffffffffffffffffffffffff1614156120c3576040517f08c379a00000000000000000000000000000000000000000000000000000000081526004016120ba90612e8b565b60405180910390fd5b6120cc81611252565b1561210c576040517f08c379a000000000000000000000000000000000000000000000000000000000815260040161210390612d8b565b60405180910390fd5b61211860008383611e34565b6001600360008473ffffffffffffffffffffffffffffffffffffffff1673ffffffffffffffffffffffffffffffffffffffff16815260200190815260200160002060008282546121689190613045565b92505081905550816002600083815260200190815260200160002060006101000a81548173ffffffffffffffffffffffffffffffffffffffff021916908373ffffffffffffffffffffffffffffffffffffffff160217905550808273ffffffffffffffffffffffffffffffffffffffff16600073ffffffffffffffffffffffffffffffffffffffff167fddf252ad1be2c89b69c2b068fc378daa952ba7f163c4a11628f55a4df523b3ef60405160405180910390a461222960008383611e39565b5050565b82805461223990613210565b90600052602060002090601f01602090048101928261225b57600085556122a2565b82601f1061227457805160ff19168380011785556122a2565b828001600101855582156122a2579182015b828111156122a1578251825591602001919060010190612286565b5b5090506122af91906122b3565b5090565b5b808211156122cc5760008160009055506001016122b4565b5090565b60006122e36122de84612f8b565b612f66565b9050828152602081018484840111156122fb57600080fd5b6123068482856131ce565b509392505050565b600061232161231c84612fbc565b612f66565b90508281526020810184848401111561233957600080fd5b6123448482856131ce565b509392505050565b60008135905061235b816139c9565b92915050565b600081359050612370816139e0565b92915050565b600081359050612385816139f7565b92915050565b60008151905061239a816139f7565b92915050565b600082601f8301126123b157600080fd5b81356123c18482602086016122d0565b91505092915050565b600082601f8301126123db57600080fd5b81356123eb84826020860161230e565b91505092915050565b60008135905061240381613a0e565b92915050565b60006020828403121561241b57600080fd5b60006124298482850161234c565b91505092915050565b6000806040838503121561244557600080fd5b60006124538582860161234c565b92505060206124648582860161234c565b9150509250929050565b60008060006060848603121561248357600080fd5b60006124918682870161234c565b93505060206124a28682870161234c565b92505060406124b3868287016123f4565b9150509250925092565b600080600080608085870312156124d357600080fd5b60006124e18782880161234c565b94505060206124f28782880161234c565b9350506040612503878288016123f4565b925050606085013567ffffffffffffffff81111561252057600080fd5b61252c878288016123a0565b91505092959194509250565b6000806040838503121561254b57600080fd5b60006125598582860161234c565b925050602061256a85828601612361565b9150509250929050565b6000806040838503121561258757600080fd5b60006125958582860161234c565b92505060206125a6858286016123f4565b9150509250929050565b6000602082840312156125c257600080fd5b60006125d084828501612376565b91505092915050565b6000602082840312156125eb57600080fd5b60006125f98482850161238b565b91505092915050565b60006020828403121561261457600080fd5b600082013567ffffffffffffffff81111561262e57600080fd5b61263a848285016123ca565b91505092915050565b60006020828403121561265557600080fd5b6000612663848285016123f4565b91505092915050565b6126758161315a565b82525050565b6126848161316c565b82525050565b600061269582613002565b61269f8185613018565b93506126af8185602086016131dd565b6126b8816133a9565b840191505092915050565b60006126ce8261300d565b6126d88185613029565b93506126e88185602086016131dd565b6126f1816133a9565b840191505092915050565b60006127078261300d565b612711818561303a565b93506127218185602086016131dd565b80840191505092915050565b6000815461273a81613210565b612744818661303a565b9450600182166000811461275f5760018114612770576127a3565b60ff198316865281860193506127a3565b61277985612fed565b60005b8381101561279b5781548189015260018201915060208101905061277c565b838801955050505b50505092915050565b60006127b960258361303a565b91506127c4826133ba565b602582019050919050565b60006127dc603283613029565b91506127e782613409565b604082019050919050565b60006127ff602583613029565b915061280a82613458565b604082019050919050565b6000612822605c8361303a565b915061282d826134a7565b605c82019050919050565b6000612845601c83613029565b91506128508261351c565b602082019050919050565b6000612868602483613029565b915061287382613545565b604082019050919050565b600061288b601983613029565b915061289682613594565b602082019050919050565b60006128ae602c83613029565b91506128b9826135bd565b604082019050919050565b60006128d1600d8361303a565b91506128dc8261360c565b600d82019050919050565b60006128f4603883613029565b91506128ff82613635565b604082019050919050565b6000612917602a83613029565b915061292282613684565b604082019050919050565b600061293a602983613029565b9150612945826136d3565b604082019050919050565b600061295d602e83613029565b915061296882613722565b604082019050919050565b600061298060028361303a565b915061298b82613771565b600282019050919050565b60006129a3602083613029565b91506129ae8261379a565b602082019050919050565b60006129c6603183613029565b91506129d1826137c3565b604082019050919050565b60006129e9602c83613029565b91506129f482613812565b604082019050919050565b6000612a0c602f83613029565b9150612a1782613861565b604082019050919050565b6000612a2f600a8361303a565b9150612a3a826138b0565b600a82019050919050565b6000612a52602183613029565b9150612a5d826138d9565b604082019050919050565b6000612a75600a8361303a565b9150612a8082613928565b600a82019050919050565b6000612a98601d8361303a565b9150612aa382613951565b601d82019050919050565b6000612abb603183613029565b9150612ac68261397a565b604082019050919050565b612ada816131c4565b82525050565b6000612aec82846126fc565b915081905092915050565b6000612b0382856126fc565b9150612b0f82846126fc565b91508190509392505050565b6000612b2782866126fc565b9150612b3382856126fc565b9150612b3f82846126fc565b9150819050949350505050565b6000612b58828761272d565b9150612b6482866126fc565b9150612b7082856126fc565b9150612b7c82846126fc565b9150612b87826128c4565b915081905095945050505050565b6000612ba0826127ac565b9150612bac82846126fc565b915081905092915050565b6000612bc282612a22565b9150612bce82856126fc565b9150612bd982612815565b9150612be582846126fc565b9150612bf082612973565b91508190509392505050565b6000612c0782612a68565b9150612c1382846126fc565b915081905092915050565b6000612c2982612a8b565b9150612c3582846126fc565b915081905092915050565b6000602082019050612c55600083018461266c565b92915050565b6000608082019050612c70600083018761266c565b612c7d602083018661266c565b612c8a6040830185612ad1565b8181036060830152612c9c818461268a565b905095945050505050565b6000604082019050612cbc600083018561266c565b612cc96020830184612ad1565b9392505050565b6000602082019050612ce5600083018461267b565b92915050565b60006020820190508181036000830152612d0581846126c3565b905092915050565b60006060820190508181036000830152612d2781866126c3565b9050612d366020830185612ad1565b612d43604083018461266c565b949350505050565b60006020820190508181036000830152612d64816127cf565b9050919050565b60006020820190508181036000830152612d84816127f2565b9050919050565b60006020820190508181036000830152612da481612838565b9050919050565b60006020820190508181036000830152612dc48161285b565b9050919050565b60006020820190508181036000830152612de48161287e565b9050919050565b60006020820190508181036000830152612e04816128a1565b9050919050565b60006020820190508181036000830152612e24816128e7565b9050919050565b60006020820190508181036000830152612e448161290a565b9050919050565b60006020820190508181036000830152612e648161292d565b9050919050565b60006020820190508181036000830152612e8481612950565b9050919050565b60006020820190508181036000830152612ea481612996565b9050919050565b60006020820190508181036000830152612ec4816129b9565b9050919050565b60006020820190508181036000830152612ee4816129dc565b9050919050565b60006020820190508181036000830152612f04816129ff565b9050919050565b60006020820190508181036000830152612f2481612a45565b9050919050565b60006020820190508181036000830152612f4481612aae565b9050919050565b6000602082019050612f606000830184612ad1565b92915050565b6000612f70612f81565b9050612f7c8282613242565b919050565b6000604051905090565b600067ffffffffffffffff821115612fa657612fa561337a565b5b612faf826133a9565b9050602081019050919050565b600067ffffffffffffffff821115612fd757612fd661337a565b5b612fe0826133a9565b9050602081019050919050565b60008190508160005260206000209050919050565b600081519050919050565b600081519050919050565b600082825260208201905092915050565b600082825260208201905092915050565b600081905092915050565b6000613050826131c4565b915061305b836131c4565b9250827fffffffffffffffffffffffffffffffffffffffffffffffffffffffffffffffff038211156130905761308f6132ed565b5b828201905092915050565b60006130a6826131c4565b91506130b1836131c4565b9250826130c1576130c061331c565b5b828204905092915050565b60006130d7826131c4565b91506130e2836131c4565b9250817fffffffffffffffffffffffffffffffffffffffffffffffffffffffffffffffff048311821515161561311b5761311a6132ed565b5b828202905092915050565b6000613131826131c4565b915061313c836131c4565b92508282101561314f5761314e6132ed565b5b828203905092915050565b6000613165826131a4565b9050919050565b60008115159050919050565b60007fffffffff0000000000000000000000000000000000000000000000000000000082169050919050565b600073ffffffffffffffffffffffffffffffffffffffff82169050919050565b6000819050919050565b82818337600083830152505050565b60005b838110156131fb5780820151818401526020810190506131e0565b8381111561320a576000848401525b50505050565b6000600282049050600182168061322857607f821691505b6020821081141561323c5761323b61334b565b5b50919050565b61324b826133a9565b810181811067ffffffffffffffff8211171561326a5761326961337a565b5b80604052505050565b600061327e826131c4565b91507fffffffffffffffffffffffffffffffffffffffffffffffffffffffffffffffff8214156132b1576132b06132ed565b5b600182019050919050565b60006132c7826131c4565b91506132d2836131c4565b9250826132e2576132e161331c565b5b828206905092915050565b7f4e487b7100000000000000000000000000000000000000000000000000000000600052601160045260246000fd5b7f4e487b7100000000000000000000000000000000000000000000000000000000600052601260045260246000fd5b7f4e487b7100000000000000000000000000000000000000000000000000000000600052602260045260246000fd5b7f4e487b7100000000000000000000000000000000000000000000000000000000600052604160045260246000fd5b6000601f19601f8301169050919050565b7f68747470733a2f2f6e6674707265766965772e30786465762e636f6465732f3f60008201527f636f64653d000000000000000000000000000000000000000000000000000000602082015250565b7f4552433732313a207472616e7366657220746f206e6f6e20455243373231526560008201527f63656976657220696d706c656d656e7465720000000000000000000000000000602082015250565b7f4552433732313a207472616e736665722066726f6d20696e636f72726563742060008201527f6f776e6572000000000000000000000000000000000000000000000000000000602082015250565b7f222c20226465736372697074696f6e223a202241206c696d697465642065646960008201527f74696f6e20416b617920636f6c6c656374696f6e2e222c2022696d616765223a60208201527f2022646174613a696d6167652f7376672b786d6c3b6261736536342c00000000604082015250565b7f4552433732313a20746f6b656e20616c7265616479206d696e74656400000000600082015250565b7f4552433732313a207472616e7366657220746f20746865207a65726f2061646460008201527f7265737300000000000000000000000000000000000000000000000000000000602082015250565b7f4552433732313a20617070726f766520746f2063616c6c657200000000000000600082015250565b7f4552433732313a206f70657261746f7220717565727920666f72206e6f6e657860008201527f697374656e7420746f6b656e0000000000000000000000000000000000000000602082015250565b7f3c2f746578743e3c2f7376673e00000000000000000000000000000000000000600082015250565b7f4552433732313a20617070726f76652063616c6c6572206973206e6f74206f7760008201527f6e6572206e6f7220617070726f76656420666f7220616c6c0000000000000000602082015250565b7f4552433732313a2062616c616e636520717565727920666f7220746865207a6560008201527f726f206164647265737300000000000000000000000000000000000000000000602082015250565b7f4552433732313a206f776e657220717565727920666f72206e6f6e657869737460008201527f656e7420746f6b656e0000000000000000000000000000000000000000000000602082015250565b7f45524337323155524953746f726167653a2055524920736574206f66206e6f6e60008201527f6578697374656e7420746f6b656e000000000000000000000000000000000000602082015250565b7f227d000000000000000000000000000000000000000000000000000000000000600082015250565b7f4552433732313a206d696e7420746f20746865207a65726f2061646472657373600082015250565b7f45524337323155524953746f726167653a2055524920717565727920666f722060008201527f6e6f6e6578697374656e7420746f6b656e000000000000000000000000000000602082015250565b7f4552433732313a20617070726f76656420717565727920666f72206e6f6e657860008201527f697374656e7420746f6b656e0000000000000000000000000000000000000000602082015250565b7f4552433732314d657461646174613a2055524920717565727920666f72206e6f60008201527f6e6578697374656e7420746f6b656e0000000000000000000000000000000000602082015250565b7f7b226e616d65223a202200000000000000000000000000000000000000000000600082015250565b7f4552433732313a20617070726f76616c20746f2063757272656e74206f776e6560008201527f7200000000000000000000000000000000000000000000000000000000000000602082015250565b7f46495253545f574f524400000000000000000000000000000000000000000000600082015250565b7f646174613a6170706c69636174696f6e2f6a736f6e3b6261736536342c000000600082015250565b7f4552433732313a207472616e736665722063616c6c6572206973206e6f74206f60008201527f776e6572206e6f7220617070726f766564000000000000000000000000000000602082015250565b6139d28161315a565b81146139dd57600080fd5b50565b6139e98161316c565b81146139f457600080fd5b50565b613a0081613178565b8114613a0b57600080fd5b50565b613a17816131c4565b8114613a2257600080fd5b5056fe416e204e465420772f20494420257320686173206265656e206d696e74656420746f2025734142434445464748494a4b4c4d4e4f505152535455565758595a6162636465666768696a6b6c6d6e6f707172737475767778797a303132333435363738392b2fa2646970667358221220f7c9ae36db0f70b32e4410732f2dd76ac14cc305617b0f32397c62b727af8af664736f6c634300080100333c73766720786d6c6e733d27687474703a2f2f7777772e77332e6f72672f323030302f73766727207072657365727665417370656374526174696f3d27784d696e594d696e206d656574272076696577426f783d273020302033353020333530273e3c7374796c653e2e62617365207b2066696c6c3a2077686974653b20666f6e742d66616d696c793a2073657269663b20666f6e742d73697a653a20323470783b207d3c2f7374796c653e3c726563742077696474683d273130302527206865696768743d2731303025272066696c6c3d27626c61636b27202f3e3c7465787420783d273530252720793d273530252720636c6173733d27626173652720646f6d696e616e742d626173656c696e653d276d6964646c652720746578742d616e63686f723d276d6964646c65273e",
  "linkReferences": {},
  "deployedLinkReferences": {}
}